{
	"abi": [
		{
			"type": "constructor",
			"inputs": [],
			"stateMutability": "nonpayable"
		},
		{
			"type": "function",
			"name": "changeOwner",
			"inputs": [
				{
					"name": "_newOwner",
					"type": "address",
					"internalType": "address"
				}
			],
			"outputs": [],
			"stateMutability": "nonpayable"
		},
		{
			"type": "function",
			"name": "confirmOwnerChange",
			"inputs": [],
			"outputs": [],
			"stateMutability": "nonpayable"
		},
		{
			"type": "function",
			"name": "getPeersCount",
			"inputs": [],
			"outputs": [
				{
					"name": "",
					"type": "uint256",
					"internalType": "uint256"
				}
			],
			"stateMutability": "view"
		},
		{
			"type": "function",
			"name": "getSwarmThreshold",
			"inputs": [],
			"outputs": [
				{
					"name": "",
					"type": "uint256",
					"internalType": "uint256"
				}
			],
			"stateMutability": "view"
		},
		{
			"type": "function",
			"name": "isPeerRegistered",
			"inputs": [
				{
					"name": "_address",
					"type": "address",
					"internalType": "address"
				}
			],
			"outputs": [
				{
					"name": "",
					"type": "bool",
					"internalType": "bool"
				}
			],
			"stateMutability": "view"
		},
		{
			"type": "function",
			"name": "isRequestFulfilled",
			"inputs": [
				{
					"name": "_requestHash",
					"type": "bytes32",
					"internalType": "bytes32"
				}
			],
			"outputs": [
				{
					"name": "",
					"type": "bool",
					"internalType": "bool"
				}
			],
			"stateMutability": "view"
		},
		{
			"type": "function",
			"name": "isRequestPending",
			"inputs": [
				{
					"name": "_requestHash",
					"type": "bytes32",
					"internalType": "bytes32"
				}
			],
			"outputs": [
				{
					"name": "",
					"type": "bool",
					"internalType": "bool"
				}
			],
			"stateMutability": "view"
		},
		{
			"type": "function",
			"name": "owner",
			"inputs": [],
			"outputs": [
				{
					"name": "",
					"type": "address",
					"internalType": "address"
				}
			],
			"stateMutability": "view"
		},
		{
			"type": "function",
			"name": "peerPubKeys",
			"inputs": [
				{
					"name": "",
					"type": "uint256",
					"internalType": "uint256"
				}
			],
			"outputs": [
				{
					"name": "",
					"type": "address",
					"internalType": "address"
				}
			],
			"stateMutability": "view"
		},
		{
			"type": "function",
			"name": "peersMap",
			"inputs": [
				{
					"name": "",
					"type": "address",
					"internalType": "address"
				}
			],
			"outputs": [
				{
					"name": "",
					"type": "uint8",
					"internalType": "uint8"
				}
			],
			"stateMutability": "view"
		},
		{
			"type": "function",
			"name": "pendingOwner",
			"inputs": [],
			"outputs": [
				{
					"name": "",
					"type": "address",
					"internalType": "address"
				}
			],
			"stateMutability": "view"
		},
		{
			"type": "function",
			"name": "postRequest",
			"inputs": [
				{
					"name": "_callbackContract",
					"type": "address",
					"internalType": "address"
				},
				{
					"name": "_payload",
					"type": "bytes",
					"internalType": "bytes"
				}
			],
			"outputs": [
				{
					"name": "",
					"type": "uint256",
					"internalType": "uint256"
				}
			],
			"stateMutability": "payable"
		},
		{
			"type": "function",
			"name": "postResponse",
			"inputs": [
				{
					"name": "_request",
					"type": "tuple",
					"internalType": "struct RequestData",
					"components": [
						{
							"name": "sn",
							"type": "uint256",
							"internalType": "uint256"
						},
						{
							"name": "callbackContract",
							"type": "address",
							"internalType": "address"
						},
						{
							"name": "payload",
							"type": "bytes",
							"internalType": "bytes"
						}
					]
				},
				{
					"name": "_response",
					"type": "bytes",
					"internalType": "bytes"
				},
				{
					"name": "_rs",
					"type": "bytes32[]",
					"internalType": "bytes32[]"
				},
				{
					"name": "_ss",
					"type": "bytes32[]",
					"internalType": "bytes32[]"
				},
				{
					"name": "_vs",
					"type": "uint8[]",
					"internalType": "uint8[]"
				}
			],
			"outputs": [],
			"stateMutability": "nonpayable"
		},
		{
			"type": "function",
			"name": "registerPeer",
			"inputs": [
				{
					"name": "_address",
					"type": "address",
					"internalType": "address"
				}
			],
			"outputs": [],
			"stateMutability": "nonpayable"
		},
		{
			"type": "function",
			"name": "requests",
			"inputs": [
				{
					"name": "",
					"type": "bytes32",
					"internalType": "bytes32"
				}
			],
			"outputs": [
				{
					"name": "",
					"type": "uint8",
					"internalType": "enum RequestStatus"
				}
			],
			"stateMutability": "view"
		},
		{
			"type": "function",
			"name": "sn",
			"inputs": [],
			"outputs": [
				{
					"name": "",
					"type": "uint256",
					"internalType": "uint256"
				}
			],
			"stateMutability": "view"
		},
		{
			"type": "event",
			"name": "NewRequest",
			"inputs": [
				{
					"name": "sn",
					"type": "uint256",
					"indexed": true,
					"internalType": "uint256"
				},
				{
					"name": "callbackContract",
					"type": "address",
					"indexed": false,
					"internalType": "address"
				},
				{
					"name": "payload",
					"type": "bytes",
					"indexed": false,
					"internalType": "bytes"
				}
			],
			"anonymous": false
		},
		{
			"type": "event",
			"name": "OwnershipTransferInitiated",
			"inputs": [
				{
					"name": "newOwner",
					"type": "address",
					"indexed": true,
					"internalType": "address"
				}
			],
			"anonymous": false
		},
		{
			"type": "event",
			"name": "OwnershipTransferred",
			"inputs": [
				{
					"name": "oldOwner",
					"type": "address",
					"indexed": true,
					"internalType": "address"
				},
				{
					"name": "newOwner",
					"type": "address",
					"indexed": true,
					"internalType": "address"
				}
			],
			"anonymous": false
		}
	],
	"bytecode": {
		"object": "0x60806040526000600555348015601457600080fd5b50600080546001600160a01b031916331790556112d7806100366000396000f3fe6080604052600436106100f35760003560e01c8063b140bc461161008a578063e30c397811610059578063e30c3978146102f7578063e3e4c18814610317578063f042757e1461032c578063f872bec01461034157600080fd5b8063b140bc4614610284578063b4a68881146102a4578063d1e93d14146102c4578063d6e95173146102e457600080fd5b80638da5cb5b116100c65780638da5cb5b146101cf57806392a442ea146102075780639d86698514610227578063a6f9dae11461026457600080fd5b806320134330146100f8578063402c881e146101485780636b3374921461016b57806373e64cb4146101ad575b600080fd5b34801561010457600080fd5b50610133610113366004610da9565b6001600160a01b031660009081526003602052604090205460ff16151590565b60405190151581526020015b60405180910390f35b34801561015457600080fd5b5061015d610357565b60405190815260200161013f565b34801561017757600080fd5b5061019b610186366004610da9565b60036020526000908152604090205460ff1681565b60405160ff909116815260200161013f565b3480156101b957600080fd5b506101cd6101c8366004610e71565b610378565b005b3480156101db57600080fd5b506000546101ef906001600160a01b031681565b6040516001600160a01b03909116815260200161013f565b34801561021357600080fd5b50610133610222366004610f76565b6108eb565b34801561023357600080fd5b50610257610242366004610f76565b60046020526000908152604090205460ff1681565b60405161013f9190610fa5565b34801561027057600080fd5b506101cd61027f366004610da9565b61091c565b34801561029057600080fd5b506101cd61029f366004610da9565b6109f4565b3480156102b057600080fd5b506101ef6102bf366004610f76565b610b4c565b3480156102d057600080fd5b506101336102df366004610f76565b610b76565b61015d6102f2366004610fcd565b610b7f565b34801561030357600080fd5b506001546101ef906001600160a01b031681565b34801561032357600080fd5b5060025461015d565b34801561033857600080fd5b506101cd610cdb565b34801561034d57600080fd5b5061015d60055481565b600254600090610368600382611036565b6103729082611058565b91505090565b3360009081526003602052604090205460ff166103cb5760405162461bcd60e51b815260206004820152600c60248201526b24b73b30b634b2103832b2b960a11b60448201526064015b60405180910390fd5b6000896040516020016103de919061109a565b60408051601f1981840301815291905280516020909101209050600160008281526004602081905260409091205460ff169081111561041f5761041f610f8f565b146104625760405162461bcd60e51b815260206004820152601360248201527252657175657374206e6f742070656e64696e6760681b60448201526064016103c2565b600061046c610357565b9050808710156104be5760405162461bcd60e51b815260206004820152601760248201527f496e73756666696369656e74207369676e61747572657300000000000000000060448201526064016103c2565b86851461050d5760405162461bcd60e51b815260206004820152601c60248201527f4d69736d617463686564207369676e6174757265206c656e677468730000000060448201526064016103c2565b60025460009061051e906001611122565b67ffffffffffffffff81111561053657610536611135565b60405190808252806020026020018201604052801561055f578160200160208202803683370190505b5090506000808c8c8660405160200161057a9392919061114b565b60405160208183030381529060405280519060200120905060005b8a8110156107c95760006001838a8a858181106105b4576105b461115d565b90506020020160208101906105c99190611173565b8f8f868181106105db576105db61115d565b905060200201358e8e878181106105f4576105f461115d565b9050602002013560405160008152602001604052604051610631949392919093845260ff9290921660208401526040830152606082015260800190565b6020604051602081039080840390855afa158015610653573d6000803e3d6000fd5b5050604051601f1901519150506001600160a01b0381166106aa5760405162461bcd60e51b8152602060048201526011602482015270496e76616c6964207369676e617475726560781b60448201526064016103c2565b6001600160a01b03811660009081526003602052604081205460ff169081900361070c5760405162461bcd60e51b81526020600482015260136024820152721419595c881b9bdd081c9959da5cdd195c9959606a1b60448201526064016103c2565b60006001600160a01b0316868260ff168151811061072c5761072c61115d565b60200260200101516001600160a01b0316146107815760405162461bcd60e51b81526020600482015260146024820152734e6f6e2d756e69717565207369676e617475726560601b60448201526064016103c2565b81868260ff16815181106107975761079761115d565b6001600160a01b03909216602092830291909101909101526107ba600186611196565b94505050806001019050610595565b50600085815260046020526040902080546002919060ff1916600183021790555060008e60200160208101906107ff9190610da9565b6001600160a01b03168e8e60405160240161081b9291906111af565b60408051601f198184030181529181526020820180516001600160e01b0316633a62959560e21b1790525161085091906111ef565b6000604051808303816000865af19150503d806000811461088d576040519150601f19603f3d011682016040523d82523d6000602084013e610892565b606091505b50509050806108a25760046108a5565b60035b60008781526004602081905260409091208054909160ff199091169060019084908111156108d5576108d5610f8f565b0217905550505050505050505050505050505050565b600060025b60008381526004602081905260409091205460ff169081111561091557610915610f8f565b1492915050565b6000546001600160a01b031633146109625760405162461bcd60e51b81526020600482015260096024820152682737ba1037bbb732b960b91b60448201526064016103c2565b6001600160a01b0381166109aa5760405162461bcd60e51b815260206004820152600f60248201526e496e76616c6964206164647265737360881b60448201526064016103c2565b600180546001600160a01b0319166001600160a01b0383169081179091556040517f20f5afdf40bf7b43c89031a5d4369a30b159e512d164aa46124bcb706b4a1caf90600090a250565b6000546001600160a01b03163314610a3a5760405162461bcd60e51b81526020600482015260096024820152682737ba1037bbb732b960b91b60448201526064016103c2565b6001600160a01b038116610a825760405162461bcd60e51b815260206004820152600f60248201526e496e76616c6964206164647265737360881b60448201526064016103c2565b6001600160a01b03811660009081526003602052604090205460ff1615610ae05760405162461bcd60e51b8152602060048201526012602482015271105b1c9958591e481c9959da5cdd195c995960721b60448201526064016103c2565b600280546001810182557f405787fa12a823e0f2b7631cc41b3ba8828b3321ca811111fa75cd3aa3bb5ace0180546001600160a01b0319166001600160a01b0393909316928317905554600091825260036020526040909120805460ff191660ff909216919091179055565b60028181548110610b5c57600080fd5b6000918252602090912001546001600160a01b0316905081565b600060016108f0565b60006001600160a01b038416610bd75760405162461bcd60e51b815260206004820152601960248201527f496e76616c69642063616c6c6261636b20636f6e74726163740000000000000060448201526064016103c2565b60058054906000610be78361120b565b9190505550600060405180606001604052806005548152602001866001600160a01b0316815260200185858080601f016020809104026020016040519081016040528093929190818152602001838380828437600092018290525093909452505060405192935091610c5e91508390602001611224565b60408051808303601f19018152828252805160209182012060008181526004909252919020805460ff19166001179055600554909250907f0f4abe1047b2e3e9b2a07806bd86e20d27244a2317feaa31fb97d26b9491148690610cc69089908990899061127c565b60405180910390a25050600554949350505050565b6001546001600160a01b03163314610d295760405162461bcd60e51b81526020600482015260116024820152702737ba103832b73234b7339037bbb732b960791b60448201526064016103c2565b600154600080546040516001600160a01b0393841693909116917f8be0079c531659141344cd1fd0a4f28419497f9722a3daafe3b4186f6b6457e091a360018054600080546001600160a01b03199081166001600160a01b03841617909155169055565b80356001600160a01b0381168114610da457600080fd5b919050565b600060208284031215610dbb57600080fd5b610dc482610d8d565b9392505050565b600060608284031215610ddd57600080fd5b50919050565b60008083601f840112610df557600080fd5b50813567ffffffffffffffff811115610e0d57600080fd5b602083019150836020828501011115610e2557600080fd5b9250929050565b60008083601f840112610e3e57600080fd5b50813567ffffffffffffffff811115610e5657600080fd5b6020830191508360208260051b8501011115610e2557600080fd5b600080600080600080600080600060a08a8c031215610e8f57600080fd5b893567ffffffffffffffff811115610ea657600080fd5b610eb28c828d01610dcb565b99505060208a013567ffffffffffffffff811115610ecf57600080fd5b610edb8c828d01610de3565b90995097505060408a013567ffffffffffffffff811115610efb57600080fd5b610f078c828d01610e2c565b90975095505060608a013567ffffffffffffffff811115610f2757600080fd5b610f338c828d01610e2c565b90955093505060808a013567ffffffffffffffff811115610f5357600080fd5b610f5f8c828d01610e2c565b915080935050809150509295985092959850929598565b600060208284031215610f8857600080fd5b5035919050565b634e487b7160e01b600052602160045260246000fd5b6020810160058310610fc757634e487b7160e01b600052602160045260246000fd5b91905290565b600080600060408486031215610fe257600080fd5b610feb84610d8d565b9250602084013567ffffffffffffffff81111561100757600080fd5b61101386828701610de3565b9497909650939450505050565b634e487b7160e01b600052601160045260246000fd5b60008261105357634e487b7160e01b600052601260045260246000fd5b500490565b8181038181111561106b5761106b611020565b92915050565b81835281816020850137506000828201602090810191909152601f909101601f19169091010190565b60208082528235828201526000906001600160a01b03906110bc908501610d8d565b1660408301526040830135601e198436030181126110d957600080fd5b830160208101903567ffffffffffffffff8111156110f657600080fd5b80360382131561110557600080fd5b606080850152611119608085018284611071565b95945050505050565b8082018082111561106b5761106b611020565b634e487b7160e01b600052604160045260246000fd5b82848237909101908152602001919050565b634e487b7160e01b600052603260045260246000fd5b60006020828403121561118557600080fd5b813560ff81168114610dc457600080fd5b60ff818116838216019081111561106b5761106b611020565b6020815260006111c3602083018486611071565b949350505050565b60005b838110156111e65781810151838201526020016111ce565b50506000910152565b600082516112018184602087016111cb565b9190910192915050565b60006001820161121d5761121d611020565b5060010190565b602081528151602082015260018060a01b0360208301511660408201526000604083015160608084015280518060808501526112678160a08601602085016111cb565b601f01601f19169290920160a0019392505050565b6001600160a01b0384168152604060208201819052600090611119908301848661107156fea26469706673582212200feb241735d43399cc92c814f1f6d59d79d87343bf793b0c58bd323e288d4ca764736f6c634300081b0033",
		"linkReferences": {}
	},
	"methodIdentifiers": {
		"changeOwner(address)": "a6f9dae1",
		"confirmOwnerChange()": "f042757e",
		"getPeersCount()": "e3e4c188",
		"getSwarmThreshold()": "402c881e",
		"isPeerRegistered(address)": "20134330",
		"isRequestFulfilled(bytes32)": "92a442ea",
		"isRequestPending(bytes32)": "d1e93d14",
		"owner()": "8da5cb5b",
		"peerPubKeys(uint256)": "b4a68881",
		"peersMap(address)": "6b337492",
		"pendingOwner()": "e30c3978",
		"postRequest(address,bytes)": "d6e95173",
		"postResponse((uint256,address,bytes),bytes,bytes32[],bytes32[],uint8[])": "73e64cb4",
		"registerPeer(address)": "b140bc46",
		"requests(bytes32)": "9d866985",
		"sn()": "f872bec0"
	},
	"id": 24
}