{"abi":[{"type":"constructor","inputs":[],"stateMutability":"nonpayable"},{"type":"function","name":"getPeersCount","inputs":[],"outputs":[{"name":"","type":"uint256","internalType":"uint256"}],"stateMutability":"view"},{"type":"function","name":"getSwarmThreshold","inputs":[],"outputs":[{"name":"","type":"uint256","internalType":"uint256"}],"stateMutability":"view"},{"type":"function","name":"isPeerRegistered","inputs":[{"name":"_address","type":"address","internalType":"address"}],"outputs":[{"name":"","type":"bool","internalType":"bool"}],"stateMutability":"view"},{"type":"function","name":"isRequestFulfilled","inputs":[{"name":"_requestHash","type":"bytes32","internalType":"bytes32"}],"outputs":[{"name":"","type":"bool","internalType":"bool"}],"stateMutability":"view"},{"type":"function","name":"isRequestPending","inputs":[{"name":"_requestHash","type":"bytes32","internalType":"bytes32"}],"outputs":[{"name":"","type":"bool","internalType":"bool"}],"stateMutability":"view"},{"type":"function","name":"owner","inputs":[],"outputs":[{"name":"","type":"address","internalType":"address"}],"stateMutability":"view"},{"type":"function","name":"peerPubKeys","inputs":[{"name":"","type":"uint256","internalType":"uint256"}],"outputs":[{"name":"","type":"address","internalType":"address"}],"stateMutability":"view"},{"type":"function","name":"peersMap","inputs":[{"name":"","type":"address","internalType":"address"}],"outputs":[{"name":"","type":"uint8","internalType":"uint8"}],"stateMutability":"view"},{"type":"function","name":"postRequest","inputs":[{"name":"_callbackContract","type":"address","internalType":"address"},{"name":"_payload","type":"bytes","internalType":"bytes"}],"outputs":[{"name":"","type":"uint256","internalType":"uint256"}],"stateMutability":"payable"},{"type":"function","name":"postResponse","inputs":[{"name":"_request","type":"tuple","internalType":"struct RequestData","components":[{"name":"sn","type":"uint256","internalType":"uint256"},{"name":"callbackContract","type":"address","internalType":"address"},{"name":"payload","type":"bytes","internalType":"bytes"}]},{"name":"_response","type":"bytes","internalType":"bytes"},{"name":"_rs","type":"bytes32[]","internalType":"bytes32[]"},{"name":"_ss","type":"bytes32[]","internalType":"bytes32[]"},{"name":"_vs","type":"uint8[]","internalType":"uint8[]"}],"outputs":[],"stateMutability":"nonpayable"},{"type":"function","name":"registerPeer","inputs":[{"name":"_address","type":"address","internalType":"address"}],"outputs":[],"stateMutability":"nonpayable"},{"type":"function","name":"requests","inputs":[{"name":"","type":"bytes32","internalType":"bytes32"}],"outputs":[{"name":"","type":"uint8","internalType":"enum RequestStatus"}],"stateMutability":"view"},{"type":"function","name":"sn","inputs":[],"outputs":[{"name":"","type":"uint256","internalType":"uint256"}],"stateMutability":"view"},{"type":"event","name":"NewRequest","inputs":[{"name":"sn","type":"uint256","indexed":true,"internalType":"uint256"},{"name":"callbackContract","type":"address","indexed":false,"internalType":"address"},{"name":"payload","type":"bytes","indexed":false,"internalType":"bytes"}],"anonymous":false}],"bytecode":{"object":"0x60806040526000600155348015601457600080fd5b50600080546001600160a01b0319163317905561109f806100366000396000f3fe6080604052600436106100c25760003560e01c80639d8669851161007f578063d1e93d1411610059578063d1e93d1414610273578063d6e9517314610293578063e3e4c188146102a6578063f872bec0146102bb57600080fd5b80639d866985146101f6578063b140bc4614610233578063b4a688811461025357600080fd5b806320134330146100c7578063402c881e146101175780636b3374921461013a57806373e64cb41461017c5780638da5cb5b1461019e57806392a442ea146101d6575b600080fd5b3480156100d357600080fd5b506101026100e2366004610b8a565b6001600160a01b031660009081526003602052604090205460ff16151590565b60405190151581526020015b60405180910390f35b34801561012357600080fd5b5061012c6102d1565b60405190815260200161010e565b34801561014657600080fd5b5061016a610155366004610b8a565b60036020526000908152604090205460ff1681565b60405160ff909116815260200161010e565b34801561018857600080fd5b5061019c610197366004610c52565b6102f2565b005b3480156101aa57600080fd5b506000546101be906001600160a01b031681565b6040516001600160a01b03909116815260200161010e565b3480156101e257600080fd5b506101026101f1366004610d57565b610865565b34801561020257600080fd5b50610226610211366004610d57565b60046020526000908152604090205460ff1681565b60405161010e9190610d86565b34801561023f57600080fd5b5061019c61024e366004610b8a565b610896565b34801561025f57600080fd5b506101be61026e366004610d57565b6109ee565b34801561027f57600080fd5b5061010261028e366004610d57565b610a18565b61012c6102a1366004610dae565b610a21565b3480156102b257600080fd5b5060025461012c565b3480156102c757600080fd5b5061012c60015481565b6002546000906102e2600382610e17565b6102ec9082610e39565b91505090565b3360009081526003602052604090205460ff166103455760405162461bcd60e51b815260206004820152600c60248201526b24b73b30b634b2103832b2b960a11b60448201526064015b60405180910390fd5b6000896040516020016103589190610e7b565b60408051601f1981840301815291905280516020909101209050600160008281526004602081905260409091205460ff169081111561039957610399610d70565b146103dc5760405162461bcd60e51b815260206004820152601360248201527252657175657374206e6f742070656e64696e6760681b604482015260640161033c565b60006103e66102d1565b9050808710156104385760405162461bcd60e51b815260206004820152601760248201527f496e73756666696369656e74207369676e617475726573000000000000000000604482015260640161033c565b8685146104875760405162461bcd60e51b815260206004820152601c60248201527f4d69736d617463686564207369676e6174757265206c656e6774687300000000604482015260640161033c565b600254600090610498906001610f03565b67ffffffffffffffff8111156104b0576104b0610f16565b6040519080825280602002602001820160405280156104d9578160200160208202803683370190505b5090506000808c8c866040516020016104f493929190610f2c565b60405160208183030381529060405280519060200120905060005b8a8110156107435760006001838a8a8581811061052e5761052e610f3e565b90506020020160208101906105439190610f54565b8f8f8681811061055557610555610f3e565b905060200201358e8e8781811061056e5761056e610f3e565b90506020020135604051600081526020016040526040516105ab949392919093845260ff9290921660208401526040830152606082015260800190565b6020604051602081039080840390855afa1580156105cd573d6000803e3d6000fd5b5050604051601f1901519150506001600160a01b0381166106245760405162461bcd60e51b8152602060048201526011602482015270496e76616c6964207369676e617475726560781b604482015260640161033c565b6001600160a01b03811660009081526003602052604081205460ff16908190036106865760405162461bcd60e51b81526020600482015260136024820152721419595c881b9bdd081c9959da5cdd195c9959606a1b604482015260640161033c565b60006001600160a01b0316868260ff16815181106106a6576106a6610f3e565b60200260200101516001600160a01b0316146106fb5760405162461bcd60e51b81526020600482015260146024820152734e6f6e2d756e69717565207369676e617475726560601b604482015260640161033c565b81868260ff168151811061071157610711610f3e565b6001600160a01b0390921660209283029190910190910152610734600186610f77565b9450505080600101905061050f565b50600085815260046020526040902080546002919060ff1916600183021790555060008e60200160208101906107799190610b8a565b6001600160a01b03168e8e604051602401610795929190610f90565b60408051601f198184030181529181526020820180516001600160e01b0316633a62959560e21b179052516107ca9190610fd0565b6000604051808303816000865af19150503d8060008114610807576040519150601f19603f3d011682016040523d82523d6000602084013e61080c565b606091505b505090508061081c57600461081f565b60035b60008781526004602081905260409091208054909160ff1990911690600190849081111561084f5761084f610d70565b0217905550505050505050505050505050505050565b600060025b60008381526004602081905260409091205460ff169081111561088f5761088f610d70565b1492915050565b6000546001600160a01b031633146108dc5760405162461bcd60e51b81526020600482015260096024820152682737ba1037bbb732b960b91b604482015260640161033c565b6001600160a01b0381166109245760405162461bcd60e51b815260206004820152600f60248201526e496e76616c6964206164647265737360881b604482015260640161033c565b6001600160a01b03811660009081526003602052604090205460ff16156109825760405162461bcd60e51b8152602060048201526012602482015271105b1c9958591e481c9959da5cdd195c995960721b604482015260640161033c565b600280546001810182557f405787fa12a823e0f2b7631cc41b3ba8828b3321ca811111fa75cd3aa3bb5ace0180546001600160a01b0319166001600160a01b0393909316928317905554600091825260036020526040909120805460ff191660ff909216919091179055565b600281815481106109fe57600080fd5b6000918252602090912001546001600160a01b0316905081565b6000600161086a565b60006001600160a01b038416610a795760405162461bcd60e51b815260206004820152601960248201527f496e76616c69642063616c6c6261636b20636f6e747261637400000000000000604482015260640161033c565b60018054810190819055604080516060810182529182526001600160a01b0386166020808401919091528151601f86018290048202810182018352858152600093928301918790879081908401838280828437600092018290525093909452505060405192935091610af091508390602001610fec565b60408051808303601f19018152828252805160209182012060008181526004909252919020805460ff1916600190811790915554909250907f0f4abe1047b2e3e9b2a07806bd86e20d27244a2317feaa31fb97d26b9491148690610b5990899089908990611044565b60405180910390a25050600154949350505050565b80356001600160a01b0381168114610b8557600080fd5b919050565b600060208284031215610b9c57600080fd5b610ba582610b6e565b9392505050565b600060608284031215610bbe57600080fd5b50919050565b60008083601f840112610bd657600080fd5b50813567ffffffffffffffff811115610bee57600080fd5b602083019150836020828501011115610c0657600080fd5b9250929050565b60008083601f840112610c1f57600080fd5b50813567ffffffffffffffff811115610c3757600080fd5b6020830191508360208260051b8501011115610c0657600080fd5b600080600080600080600080600060a08a8c031215610c7057600080fd5b893567ffffffffffffffff811115610c8757600080fd5b610c938c828d01610bac565b99505060208a013567ffffffffffffffff811115610cb057600080fd5b610cbc8c828d01610bc4565b90995097505060408a013567ffffffffffffffff811115610cdc57600080fd5b610ce88c828d01610c0d565b90975095505060608a013567ffffffffffffffff811115610d0857600080fd5b610d148c828d01610c0d565b90955093505060808a013567ffffffffffffffff811115610d3457600080fd5b610d408c828d01610c0d565b915080935050809150509295985092959850929598565b600060208284031215610d6957600080fd5b5035919050565b634e487b7160e01b600052602160045260246000fd5b6020810160058310610da857634e487b7160e01b600052602160045260246000fd5b91905290565b600080600060408486031215610dc357600080fd5b610dcc84610b6e565b9250602084013567ffffffffffffffff811115610de857600080fd5b610df486828701610bc4565b9497909650939450505050565b634e487b7160e01b600052601160045260246000fd5b600082610e3457634e487b7160e01b600052601260045260246000fd5b500490565b81810381811115610e4c57610e4c610e01565b92915050565b81835281816020850137506000828201602090810191909152601f909101601f19169091010190565b60208082528235828201526000906001600160a01b0390610e9d908501610b6e565b1660408301526040830135601e19843603018112610eba57600080fd5b830160208101903567ffffffffffffffff811115610ed757600080fd5b803603821315610ee657600080fd5b606080850152610efa608085018284610e52565b95945050505050565b80820180821115610e4c57610e4c610e01565b634e487b7160e01b600052604160045260246000fd5b82848237909101908152602001919050565b634e487b7160e01b600052603260045260246000fd5b600060208284031215610f6657600080fd5b813560ff81168114610ba557600080fd5b60ff8181168382160190811115610e4c57610e4c610e01565b602081526000610fa4602083018486610e52565b949350505050565b60005b83811015610fc7578181015183820152602001610faf565b50506000910152565b60008251610fe2818460208701610fac565b9190910192915050565b602081528151602082015260018060a01b03602083015116604082015260006040830151606080840152805180608085015261102f8160a0860160208501610fac565b601f01601f19169290920160a0019392505050565b6001600160a01b0384168152604060208201819052600090610efa9083018486610e5256fea2646970667358221220652c42ce09d98ee489a5b51a32117d31637d26abb70825fe160f89914062233564736f6c634300081b0033","linkReferences":{}},"methodIdentifiers":{"getPeersCount()":"e3e4c188","getSwarmThreshold()":"402c881e","isPeerRegistered(address)":"20134330","isRequestFulfilled(bytes32)":"92a442ea","isRequestPending(bytes32)":"d1e93d14","owner()":"8da5cb5b","peerPubKeys(uint256)":"b4a68881","peersMap(address)":"6b337492","postRequest(address,bytes)":"d6e95173","postResponse((uint256,address,bytes),bytes,bytes32[],bytes32[],uint8[])":"73e64cb4","registerPeer(address)":"b140bc46","requests(bytes32)":"9d866985","sn()":"f872bec0"},"id":24}