{"abi":[{"type":"constructor","inputs":[],"stateMutability":"nonpayable"},{"type":"function","name":"getPeersCount","inputs":[],"outputs":[{"name":"","type":"uint256","internalType":"uint256"}],"stateMutability":"view"},{"type":"function","name":"getSwarmThreshold","inputs":[],"outputs":[{"name":"","type":"uint256","internalType":"uint256"}],"stateMutability":"view"},{"type":"function","name":"isPeerRegistered","inputs":[{"name":"_address","type":"address","internalType":"address"}],"outputs":[{"name":"","type":"bool","internalType":"bool"}],"stateMutability":"view"},{"type":"function","name":"isRequestFulfilled","inputs":[{"name":"_requestHash","type":"bytes32","internalType":"bytes32"}],"outputs":[{"name":"","type":"bool","internalType":"bool"}],"stateMutability":"view"},{"type":"function","name":"isRequestPending","inputs":[{"name":"_requestHash","type":"bytes32","internalType":"bytes32"}],"outputs":[{"name":"","type":"bool","internalType":"bool"}],"stateMutability":"view"},{"type":"function","name":"owner","inputs":[],"outputs":[{"name":"","type":"address","internalType":"address"}],"stateMutability":"view"},{"type":"function","name":"peerPubKeys","inputs":[{"name":"","type":"uint256","internalType":"uint256"}],"outputs":[{"name":"","type":"address","internalType":"address"}],"stateMutability":"view"},{"type":"function","name":"peersMap","inputs":[{"name":"","type":"address","internalType":"address"}],"outputs":[{"name":"","type":"uint8","internalType":"uint8"}],"stateMutability":"view"},{"type":"function","name":"postRequest","inputs":[{"name":"_callbackContract","type":"address","internalType":"address"},{"name":"_payload","type":"bytes","internalType":"bytes"}],"outputs":[{"name":"","type":"uint256","internalType":"uint256"}],"stateMutability":"payable"},{"type":"function","name":"postResponse","inputs":[{"name":"_request","type":"tuple","internalType":"struct RequestData","components":[{"name":"sn","type":"uint256","internalType":"uint256"},{"name":"callbackContract","type":"address","internalType":"address"},{"name":"payload","type":"bytes","internalType":"bytes"}]},{"name":"_response","type":"bytes","internalType":"bytes"},{"name":"_rs","type":"bytes32[]","internalType":"bytes32[]"},{"name":"_ss","type":"bytes32[]","internalType":"bytes32[]"},{"name":"_vs","type":"uint8[]","internalType":"uint8[]"}],"outputs":[],"stateMutability":"nonpayable"},{"type":"function","name":"registerPeer","inputs":[{"name":"_address","type":"address","internalType":"address"}],"outputs":[],"stateMutability":"nonpayable"},{"type":"function","name":"requests","inputs":[{"name":"","type":"bytes32","internalType":"bytes32"}],"outputs":[{"name":"","type":"uint8","internalType":"enum RequestStatus"}],"stateMutability":"view"},{"type":"function","name":"sn","inputs":[],"outputs":[{"name":"","type":"uint256","internalType":"uint256"}],"stateMutability":"view"},{"type":"event","name":"NewRequest","inputs":[{"name":"sn","type":"uint256","indexed":true,"internalType":"uint256"},{"name":"callbackContract","type":"address","indexed":false,"internalType":"address"},{"name":"payload","type":"bytes","indexed":false,"internalType":"bytes"}],"anonymous":false}],"bytecode":{"object":"0x60806040526000600455348015601457600080fd5b50600080546001600160a01b03191633179055611092806100366000396000f3fe6080604052600436106100c25760003560e01c80639d8669851161007f578063d1e93d1411610059578063d1e93d1414610273578063d6e9517314610293578063e3e4c188146102a6578063f872bec0146102bb57600080fd5b80639d866985146101f6578063b140bc4614610233578063b4a688811461025357600080fd5b806320134330146100c7578063402c881e146101175780636b3374921461013a57806373e64cb41461017c5780638da5cb5b1461019e57806392a442ea146101d6575b600080fd5b3480156100d357600080fd5b506101026100e2366004610b7d565b6001600160a01b031660009081526002602052604090205460ff16151590565b60405190151581526020015b60405180910390f35b34801561012357600080fd5b5061012c6102d1565b60405190815260200161010e565b34801561014657600080fd5b5061016a610155366004610b7d565b60026020526000908152604090205460ff1681565b60405160ff909116815260200161010e565b34801561018857600080fd5b5061019c610197366004610c45565b6102f2565b005b3480156101aa57600080fd5b506000546101be906001600160a01b031681565b6040516001600160a01b03909116815260200161010e565b3480156101e257600080fd5b506101026101f1366004610d4a565b61085b565b34801561020257600080fd5b50610226610211366004610d4a565b60036020526000908152604090205460ff1681565b60405161010e9190610d79565b34801561023f57600080fd5b5061019c61024e366004610b7d565b61088a565b34801561025f57600080fd5b506101be61026e366004610d4a565b6109e1565b34801561027f57600080fd5b5061010261028e366004610d4a565b610a0b565b61012c6102a1366004610da1565b610a14565b3480156102b257600080fd5b5060015461012c565b3480156102c757600080fd5b5061012c60045481565b6001546000906102e2600382610e0a565b6102ec9082610e2c565b91505090565b3360009081526002602052604090205460ff166103455760405162461bcd60e51b815260206004820152600c60248201526b24b73b30b634b2103832b2b960a11b60448201526064015b60405180910390fd5b6000896040516020016103589190610e6e565b60408051601f1981840301815291905280516020909101209050600160008281526003602052604090205460ff16600481111561039757610397610d63565b146103da5760405162461bcd60e51b815260206004820152601360248201527252657175657374206e6f742070656e64696e6760681b604482015260640161033c565b60006103e46102d1565b9050808710156104365760405162461bcd60e51b815260206004820152601760248201527f496e73756666696369656e74207369676e617475726573000000000000000000604482015260640161033c565b8685146104855760405162461bcd60e51b815260206004820152601c60248201527f4d69736d617463686564207369676e6174757265206c656e6774687300000000604482015260640161033c565b600180546000916104969190610ef6565b67ffffffffffffffff8111156104ae576104ae610f09565b6040519080825280602002602001820160405280156104d7578160200160208202803683370190505b5090506000808c8c866040516020016104f293929190610f1f565b60405160208183030381529060405280519060200120905060005b8a8110156107415760006001838a8a8581811061052c5761052c610f31565b90506020020160208101906105419190610f47565b8f8f8681811061055357610553610f31565b905060200201358e8e8781811061056c5761056c610f31565b90506020020135604051600081526020016040526040516105a9949392919093845260ff9290921660208401526040830152606082015260800190565b6020604051602081039080840390855afa1580156105cb573d6000803e3d6000fd5b5050604051601f1901519150506001600160a01b0381166106225760405162461bcd60e51b8152602060048201526011602482015270496e76616c6964207369676e617475726560781b604482015260640161033c565b6001600160a01b03811660009081526002602052604081205460ff16908190036106845760405162461bcd60e51b81526020600482015260136024820152721419595c881b9bdd081c9959da5cdd195c9959606a1b604482015260640161033c565b60006001600160a01b0316868260ff16815181106106a4576106a4610f31565b60200260200101516001600160a01b0316146106f95760405162461bcd60e51b81526020600482015260146024820152734e6f6e2d756e69717565207369676e617475726560601b604482015260640161033c565b81868260ff168151811061070f5761070f610f31565b6001600160a01b0390921660209283029190910190910152610732600186610f6a565b9450505080600101905061050d565b50600085815260036020526040902080546002919060ff1916600183021790555060008e60200160208101906107779190610b7d565b6001600160a01b03168e8e604051602401610793929190610f83565b60408051601f198184030181529181526020820180516001600160e01b0316633a62959560e21b179052516107c89190610fc3565b6000604051808303816000865af19150503d8060008114610805576040519150601f19603f3d011682016040523d82523d6000602084013e61080a565b606091505b505090508061081a57600461081d565b60035b6000878152600360205260409020805460ff1916600183600481111561084557610845610d63565b0217905550505050505050505050505050505050565b600060025b60008381526003602052604090205460ff16600481111561088357610883610d63565b1492915050565b6000546001600160a01b031633146108d05760405162461bcd60e51b81526020600482015260096024820152682737ba1037bbb732b960b91b604482015260640161033c565b6001600160a01b0381166109185760405162461bcd60e51b815260206004820152600f60248201526e496e76616c6964206164647265737360881b604482015260640161033c565b6001600160a01b03811660009081526002602052604090205460ff16156109765760405162461bcd60e51b8152602060048201526012602482015271105b1c9958591e481c9959da5cdd195c995960721b604482015260640161033c565b6001805480820182557fb10e2d527612073b26eecdfd717e6a320cf44b4afac2b0732d9fcbe2b7fa0cf60180546001600160a01b0319166001600160a01b0393909316928317905554600091825260026020526040909120805460ff191660ff909216919091179055565b600181815481106109f157600080fd5b6000918252602090912001546001600160a01b0316905081565b60006001610860565b60006001600160a01b038416610a6c5760405162461bcd60e51b815260206004820152601960248201527f496e76616c69642063616c6c6261636b20636f6e747261637400000000000000604482015260640161033c565b6004805460010190819055604080516060810182529182526001600160a01b0386166020808401919091528151601f86018290048202810182018352858152600093928301918790879081908401838280828437600092018290525093909452505060405192935091610ae491508390602001610fdf565b60408051808303601f19018152828252805160209182012060008181526003909252919020805460ff19166001179055600454909250907f0f4abe1047b2e3e9b2a07806bd86e20d27244a2317feaa31fb97d26b9491148690610b4c90899089908990611037565b60405180910390a25050600454949350505050565b80356001600160a01b0381168114610b7857600080fd5b919050565b600060208284031215610b8f57600080fd5b610b9882610b61565b9392505050565b600060608284031215610bb157600080fd5b50919050565b60008083601f840112610bc957600080fd5b50813567ffffffffffffffff811115610be157600080fd5b602083019150836020828501011115610bf957600080fd5b9250929050565b60008083601f840112610c1257600080fd5b50813567ffffffffffffffff811115610c2a57600080fd5b6020830191508360208260051b8501011115610bf957600080fd5b600080600080600080600080600060a08a8c031215610c6357600080fd5b893567ffffffffffffffff811115610c7a57600080fd5b610c868c828d01610b9f565b99505060208a013567ffffffffffffffff811115610ca357600080fd5b610caf8c828d01610bb7565b90995097505060408a013567ffffffffffffffff811115610ccf57600080fd5b610cdb8c828d01610c00565b90975095505060608a013567ffffffffffffffff811115610cfb57600080fd5b610d078c828d01610c00565b90955093505060808a013567ffffffffffffffff811115610d2757600080fd5b610d338c828d01610c00565b915080935050809150509295985092959850929598565b600060208284031215610d5c57600080fd5b5035919050565b634e487b7160e01b600052602160045260246000fd5b6020810160058310610d9b57634e487b7160e01b600052602160045260246000fd5b91905290565b600080600060408486031215610db657600080fd5b610dbf84610b61565b9250602084013567ffffffffffffffff811115610ddb57600080fd5b610de786828701610bb7565b9497909650939450505050565b634e487b7160e01b600052601160045260246000fd5b600082610e2757634e487b7160e01b600052601260045260246000fd5b500490565b81810381811115610e3f57610e3f610df4565b92915050565b81835281816020850137506000828201602090810191909152601f909101601f19169091010190565b60208082528235828201526000906001600160a01b0390610e90908501610b61565b1660408301526040830135601e19843603018112610ead57600080fd5b830160208101903567ffffffffffffffff811115610eca57600080fd5b803603821315610ed957600080fd5b606080850152610eed608085018284610e45565b95945050505050565b80820180821115610e3f57610e3f610df4565b634e487b7160e01b600052604160045260246000fd5b82848237909101908152602001919050565b634e487b7160e01b600052603260045260246000fd5b600060208284031215610f5957600080fd5b813560ff81168114610b9857600080fd5b60ff8181168382160190811115610e3f57610e3f610df4565b602081526000610f97602083018486610e45565b949350505050565b60005b83811015610fba578181015183820152602001610fa2565b50506000910152565b60008251610fd5818460208701610f9f565b9190910192915050565b602081528151602082015260018060a01b0360208301511660408201526000604083015160608084015280518060808501526110228160a0860160208501610f9f565b601f01601f19169290920160a0019392505050565b6001600160a01b0384168152604060208201819052600090610eed9083018486610e4556fea2646970667358221220fff99cf80542853bf0709dec008d62d60d8c0b473e9d502f275590d90117547f64736f6c634300081b0033","linkReferences":{}},"methodIdentifiers":{"getPeersCount()":"e3e4c188","getSwarmThreshold()":"402c881e","isPeerRegistered(address)":"20134330","isRequestFulfilled(bytes32)":"92a442ea","isRequestPending(bytes32)":"d1e93d14","owner()":"8da5cb5b","peerPubKeys(uint256)":"b4a68881","peersMap(address)":"6b337492","postRequest(address,bytes)":"d6e95173","postResponse((uint256,address,bytes),bytes,bytes32[],bytes32[],uint8[])":"73e64cb4","registerPeer(address)":"b140bc46","requests(bytes32)":"9d866985","sn()":"f872bec0"},"id":24}